{
  "_format": "hh-sol-artifact-1",
  "contractName": "BinaryChoiceVoting",
  "sourceName": "contracts/BinaryChoiceVoting.sol",
  "abi": [
    {
      "inputs": [],
      "stateMutability": "nonpayable",
      "type": "constructor"
    },
    {
      "anonymous": false,
      "inputs": [
        {
          "indexed": false,
          "internalType": "uint256",
          "name": "",
          "type": "uint256"
        }
      ],
      "name": "CreateProposal",
      "type": "event"
    },
    {
      "anonymous": false,
      "inputs": [
        {
          "indexed": false,
          "internalType": "uint256",
          "name": "",
          "type": "uint256"
        },
        {
          "indexed": false,
          "internalType": "bool",
          "name": "",
          "type": "bool"
        }
      ],
      "name": "EndProposal",
      "type": "event"
    },
    {
      "anonymous": false,
      "inputs": [
        {
          "indexed": false,
          "internalType": "address",
          "name": "",
          "type": "address"
        },
        {
          "indexed": false,
          "internalType": "uint256",
          "name": "",
          "type": "uint256"
        },
        {
          "indexed": false,
          "internalType": "bool",
          "name": "",
          "type": "bool"
        }
      ],
      "name": "VoteProposal",
      "type": "event"
    },
    {
      "inputs": [
        {
          "internalType": "string",
          "name": "_title",
          "type": "string"
        },
        {
          "internalType": "string",
          "name": "_desc",
          "type": "string"
        },
        {
          "internalType": "uint256",
          "name": "duration",
          "type": "uint256"
        }
      ],
      "name": "createProposal",
      "outputs": [],
      "stateMutability": "nonpayable",
      "type": "function"
    },
    {
      "inputs": [
        {
          "internalType": "uint256",
          "name": "id",
          "type": "uint256"
        }
      ],
      "name": "endProposal",
      "outputs": [],
      "stateMutability": "nonpayable",
      "type": "function"
    },
    {
      "inputs": [
        {
          "internalType": "uint256",
          "name": "id",
          "type": "uint256"
        }
      ],
      "name": "getAcceptCount",
      "outputs": [
        {
          "internalType": "uint256",
          "name": "",
          "type": "uint256"
        }
      ],
      "stateMutability": "view",
      "type": "function"
    },
    {
      "inputs": [
        {
          "internalType": "uint256",
          "name": "id",
          "type": "uint256"
        }
      ],
      "name": "getRejectCount",
      "outputs": [
        {
          "internalType": "uint256",
          "name": "",
          "type": "uint256"
        }
      ],
      "stateMutability": "view",
      "type": "function"
    },
    {
      "inputs": [
        {
          "internalType": "uint256",
          "name": "id",
          "type": "uint256"
        }
      ],
      "name": "getYourVoted",
      "outputs": [
        {
          "internalType": "bool",
          "name": "",
          "type": "bool"
        }
      ],
      "stateMutability": "view",
      "type": "function"
    },
    {
      "inputs": [
        {
          "internalType": "address",
          "name": "",
          "type": "address"
        },
        {
          "internalType": "uint256",
          "name": "",
          "type": "uint256"
        }
      ],
      "name": "isVoted",
      "outputs": [
        {
          "internalType": "bool",
          "name": "",
          "type": "bool"
        }
      ],
      "stateMutability": "view",
      "type": "function"
    },
    {
      "inputs": [
        {
          "internalType": "uint256",
          "name": "",
          "type": "uint256"
        }
      ],
      "name": "proposals",
      "outputs": [
        {
          "internalType": "uint256",
          "name": "id",
          "type": "uint256"
        },
        {
          "internalType": "string",
          "name": "title",
          "type": "string"
        },
        {
          "internalType": "string",
          "name": "desc",
          "type": "string"
        },
        {
          "internalType": "uint256",
          "name": "acceptsCount",
          "type": "uint256"
        },
        {
          "internalType": "uint256",
          "name": "rejectsCount",
          "type": "uint256"
        },
        {
          "internalType": "address",
          "name": "owner",
          "type": "address"
        },
        {
          "internalType": "bool",
          "name": "isEnd",
          "type": "bool"
        },
        {
          "internalType": "uint256",
          "name": "startTime",
          "type": "uint256"
        },
        {
          "internalType": "uint256",
          "name": "endTime",
          "type": "uint256"
        }
      ],
      "stateMutability": "view",
      "type": "function"
    },
    {
      "inputs": [],
      "name": "proposalsCount",
      "outputs": [
        {
          "internalType": "uint256",
          "name": "",
          "type": "uint256"
        }
      ],
      "stateMutability": "view",
      "type": "function"
    },
    {
      "inputs": [
        {
          "internalType": "uint256",
          "name": "id",
          "type": "uint256"
        },
        {
          "internalType": "bool",
          "name": "vote",
          "type": "bool"
        }
      ],
      "name": "voteProposal",
      "outputs": [],
      "stateMutability": "nonpayable",
      "type": "function"
    }
  ],
  "bytecode": "0x608060405234801561001057600080fd5b50600060018190555061181f806100286000396000f3fe608060405234801561001057600080fd5b50600436106100935760003560e01c80638ee36f05116100665780638ee36f051461013a57806390a7ac461461016a578063a07bd4001461019a578063b447773b146101b6578063bcfb9b61146101e657610093565b8063013cf08b146100985780630a9f46ad146100d05780630ce0ebf4146100ee57806322a1f74b1461010a575b600080fd5b6100b260048036038101906100ad9190610c72565b610202565b6040516100c799989796959493929190610d9a565b60405180910390f35b6100d861039d565b6040516100e59190610e35565b60405180910390f35b61010860048036038101906101039190610f85565b6103a3565b005b610124600480360381019061011f9190610c72565b610562565b6040516101319190610e35565b60405180910390f35b610154600480360381019061014f919061103c565b610590565b604051610161919061107c565b60405180910390f35b610184600480360381019061017f9190610c72565b6105bf565b604051610191919061107c565b60405180910390f35b6101b460048036038101906101af9190610c72565b6106c3565b005b6101d060048036038101906101cb9190610c72565b6108a4565b6040516101dd9190610e35565b60405180910390f35b61020060048036038101906101fb91906110c3565b6108d2565b005b6000818154811061021257600080fd5b906000526020600020906008020160009150905080600001549080600101805461023b90611132565b80601f016020809104026020016040519081016040528092919081815260200182805461026790611132565b80156102b45780601f10610289576101008083540402835291602001916102b4565b820191906000526020600020905b81548152906001019060200180831161029757829003601f168201915b5050505050908060020180546102c990611132565b80601f01602080910402602001604051908101604052809291908181526020018280546102f590611132565b80156103425780601f1061031757610100808354040283529160200191610342565b820191906000526020600020905b81548152906001019060200180831161032557829003601f168201915b5050505050908060030154908060040154908060050160009054906101000a900473ffffffffffffffffffffffffffffffffffffffff16908060050160149054906101000a900460ff16908060060154908060070154905089565b60015481565b6000604051806101200160405280600154815260200185815260200184815260200160008152602001600081526020013373ffffffffffffffffffffffffffffffffffffffff16815260200160001515815260200142815260200183610e1061040c9190611192565b4261041791906111d4565b815250908060018154018082558091505060019003906000526020600020906008020160009091909190915060008201518160000155602082015181600101908161046291906113b4565b50604082015181600201908161047891906113b4565b50606082015181600301556080820151816004015560a08201518160050160006101000a81548173ffffffffffffffffffffffffffffffffffffffff021916908373ffffffffffffffffffffffffffffffffffffffff16021790555060c08201518160050160146101000a81548160ff02191690831515021790555060e0820151816006015561010082015181600701555050600180600082825461051d91906111d4565b925050819055507f7a3fba0e8ebe82bbd0323f6d582b015a8e06c05f76ff11c32787fcfbc295d0416001546040516105559190610e35565b60405180910390a1505050565b600080828154811061057757610576611486565b5b9060005260206000209060080201600301549050919050565b60026020528160005260406000206020528060005260406000206000915091509054906101000a900460ff1681565b6000600260003373ffffffffffffffffffffffffffffffffffffffff1673ffffffffffffffffffffffffffffffffffffffff168152602001908152602001600020600083815260200190815260200160002060009054906101000a900460ff1661065e576040517f08c379a000000000000000000000000000000000000000000000000000000000815260040161065590611527565b60405180910390fd5b600360003373ffffffffffffffffffffffffffffffffffffffff1673ffffffffffffffffffffffffffffffffffffffff168152602001908152602001600020600083815260200190815260200160002060009054906101000a900460ff169050919050565b600081815481106106d7576106d6611486565b5b90600052602060002090600802016007015442101561072b576040517f08c379a000000000000000000000000000000000000000000000000000000000815260040161072290611593565b60405180910390fd5b6000818154811061073f5761073e611486565b5b906000526020600020906008020160050160009054906101000a900473ffffffffffffffffffffffffffffffffffffffff1673ffffffffffffffffffffffffffffffffffffffff163373ffffffffffffffffffffffffffffffffffffffff16146107de576040517f08c379a00000000000000000000000000000000000000000000000000000000081526004016107d590611625565b60405180910390fd5b6001600082815481106107f4576107f3611486565b5b906000526020600020906008020160050160146101000a81548160ff0219169083151502179055507ff9e7f68061180c0394bde2ffe61d84356ff3ff19441198013f2bc1790e279523816000838154811061085257610851611486565b5b9060005260206000209060080201600401546000848154811061087857610877611486565b5b90600052602060002090600802016003015411604051610899929190611645565b60405180910390a150565b60008082815481106108b9576108b8611486565b5b9060005260206000209060080201600401549050919050565b600154821115610917576040517f08c379a000000000000000000000000000000000000000000000000000000000815260040161090e906116ba565b60405180910390fd5b600260003373ffffffffffffffffffffffffffffffffffffffff1673ffffffffffffffffffffffffffffffffffffffff168152602001908152602001600020600083815260200190815260200160002060009054906101000a900460ff16156109b5576040517f08c379a00000000000000000000000000000000000000000000000000000000081526004016109ac90611726565b60405180910390fd5b600082815481106109c9576109c8611486565b5b906000526020600020906008020160050160149054906101000a900460ff1615610a28576040517f08c379a0000000000000000000000000000000000000000000000000000000008152600401610a1f90611792565b60405180910390fd5b6001600260003373ffffffffffffffffffffffffffffffffffffffff1673ffffffffffffffffffffffffffffffffffffffff168152602001908152602001600020600084815260200190815260200160002060006101000a81548160ff0219169083151502179055508015610b4257600160008381548110610aad57610aac611486565b5b90600052602060002090600802016003016000828254610acd91906111d4565b925050819055506001600360003373ffffffffffffffffffffffffffffffffffffffff1673ffffffffffffffffffffffffffffffffffffffff168152602001908152602001600020600084815260200190815260200160002060006101000a81548160ff021916908315150217905550610be9565b600160008381548110610b5857610b57611486565b5b90600052602060002090600802016004016000828254610b7891906111d4565b925050819055506000600360003373ffffffffffffffffffffffffffffffffffffffff1673ffffffffffffffffffffffffffffffffffffffff168152602001908152602001600020600084815260200190815260200160002060006101000a81548160ff0219169083151502179055505b7f39bccc3ba8af23b31122733bf6ddfd4ad7e0872ed35f48f0b2c3880baf3d2a52338383604051610c1c939291906117b2565b60405180910390a15050565b6000604051905090565b600080fd5b600080fd5b6000819050919050565b610c4f81610c3c565b8114610c5a57600080fd5b50565b600081359050610c6c81610c46565b92915050565b600060208284031215610c8857610c87610c32565b5b6000610c9684828501610c5d565b91505092915050565b610ca881610c3c565b82525050565b600081519050919050565b600082825260208201905092915050565b60005b83811015610ce8578082015181840152602081019050610ccd565b60008484015250505050565b6000601f19601f8301169050919050565b6000610d1082610cae565b610d1a8185610cb9565b9350610d2a818560208601610cca565b610d3381610cf4565b840191505092915050565b600073ffffffffffffffffffffffffffffffffffffffff82169050919050565b6000610d6982610d3e565b9050919050565b610d7981610d5e565b82525050565b60008115159050919050565b610d9481610d7f565b82525050565b600061012082019050610db0600083018c610c9f565b8181036020830152610dc2818b610d05565b90508181036040830152610dd6818a610d05565b9050610de56060830189610c9f565b610df26080830188610c9f565b610dff60a0830187610d70565b610e0c60c0830186610d8b565b610e1960e0830185610c9f565b610e27610100830184610c9f565b9a9950505050505050505050565b6000602082019050610e4a6000830184610c9f565b92915050565b600080fd5b600080fd5b7f4e487b7100000000000000000000000000000000000000000000000000000000600052604160045260246000fd5b610e9282610cf4565b810181811067ffffffffffffffff82111715610eb157610eb0610e5a565b5b80604052505050565b6000610ec4610c28565b9050610ed08282610e89565b919050565b600067ffffffffffffffff821115610ef057610eef610e5a565b5b610ef982610cf4565b9050602081019050919050565b82818337600083830152505050565b6000610f28610f2384610ed5565b610eba565b905082815260208101848484011115610f4457610f43610e55565b5b610f4f848285610f06565b509392505050565b600082601f830112610f6c57610f6b610e50565b5b8135610f7c848260208601610f15565b91505092915050565b600080600060608486031215610f9e57610f9d610c32565b5b600084013567ffffffffffffffff811115610fbc57610fbb610c37565b5b610fc886828701610f57565b935050602084013567ffffffffffffffff811115610fe957610fe8610c37565b5b610ff586828701610f57565b925050604061100686828701610c5d565b9150509250925092565b61101981610d5e565b811461102457600080fd5b50565b60008135905061103681611010565b92915050565b6000806040838503121561105357611052610c32565b5b600061106185828601611027565b925050602061107285828601610c5d565b9150509250929050565b60006020820190506110916000830184610d8b565b92915050565b6110a081610d7f565b81146110ab57600080fd5b50565b6000813590506110bd81611097565b92915050565b600080604083850312156110da576110d9610c32565b5b60006110e885828601610c5d565b92505060206110f9858286016110ae565b9150509250929050565b7f4e487b7100000000000000000000000000000000000000000000000000000000600052602260045260246000fd5b6000600282049050600182168061114a57607f821691505b60208210810361115d5761115c611103565b5b50919050565b7f4e487b7100000000000000000000000000000000000000000000000000000000600052601160045260246000fd5b600061119d82610c3c565b91506111a883610c3c565b92508282026111b681610c3c565b915082820484148315176111cd576111cc611163565b5b5092915050565b60006111df82610c3c565b91506111ea83610c3c565b925082820190508082111561120257611201611163565b5b92915050565b60008190508160005260206000209050919050565b60006020601f8301049050919050565b600082821b905092915050565b60006008830261126a7fffffffffffffffffffffffffffffffffffffffffffffffffffffffffffffffff8261122d565b611274868361122d565b95508019841693508086168417925050509392505050565b6000819050919050565b60006112b16112ac6112a784610c3c565b61128c565b610c3c565b9050919050565b6000819050919050565b6112cb83611296565b6112df6112d7826112b8565b84845461123a565b825550505050565b600090565b6112f46112e7565b6112ff8184846112c2565b505050565b5b81811015611323576113186000826112ec565b600181019050611305565b5050565b601f8211156113685761133981611208565b6113428461121d565b81016020851015611351578190505b61136561135d8561121d565b830182611304565b50505b505050565b600082821c905092915050565b600061138b6000198460080261136d565b1980831691505092915050565b60006113a4838361137a565b9150826002028217905092915050565b6113bd82610cae565b67ffffffffffffffff8111156113d6576113d5610e5a565b5b6113e08254611132565b6113eb828285611327565b600060209050601f83116001811461141e576000841561140c578287015190505b6114168582611398565b86555061147e565b601f19841661142c86611208565b60005b828110156114545784890151825560018201915060208501945060208101905061142f565b86831015611471578489015161146d601f89168261137a565b8355505b6001600288020188555050505b505050505050565b7f4e487b7100000000000000000000000000000000000000000000000000000000600052603260045260246000fd5b7f596f752068617665206e6f7420766f746520666f722070726f706f73616c207960008201527f6574000000000000000000000000000000000000000000000000000000000000602082015250565b6000611511602283610cb9565b915061151c826114b5565b604082019050919050565b6000602082019050818103600083015261154081611504565b9050919050565b7f54696d65206973206e6f74207570207965742e00000000000000000000000000600082015250565b600061157d601383610cb9565b915061158882611547565b602082019050919050565b600060208201905081810360008301526115ac81611570565b9050919050565b7f4f6e6c79206f776e65722063616e2066696e73697368207468652070726f706f60008201527f73616c2e00000000000000000000000000000000000000000000000000000000602082015250565b600061160f602483610cb9565b915061161a826115b3565b604082019050919050565b6000602082019050818103600083015261163e81611602565b9050919050565b600060408201905061165a6000830185610c9f565b6116676020830184610d8b565b9392505050565b7f50726f706f73616c2773206e6f742065786973742e0000000000000000000000600082015250565b60006116a4601583610cb9565b91506116af8261166e565b602082019050919050565b600060208201905081810360008301526116d381611697565b9050919050565b7f596f75206861766520766f746520666f722070726f706f73616c207965742e00600082015250565b6000611710601f83610cb9565b915061171b826116da565b602082019050919050565b6000602082019050818103600083015261173f81611703565b9050919050565b7f566f74696e672074696d652068617320657870697265642e0000000000000000600082015250565b600061177c601883610cb9565b915061178782611746565b602082019050919050565b600060208201905081810360008301526117ab8161176f565b9050919050565b60006060820190506117c76000830186610d70565b6117d46020830185610c9f565b6117e16040830184610d8b565b94935050505056fea264697066735822122029517aa4d388e70d30b07f36268308aa865037d8889b98f7fd15a2be71ae13e264736f6c63430008120033",
  "linkReferences": {},
  "deployedLinkReferences": {}
}