{
  "_format": "hh-sol-artifact-1",
  "contractName": "MultiChoiceVoting",
  "sourceName": "contracts/MultiChoiceVoting.sol",
  "abi": [
    {
      "inputs": [],
      "stateMutability": "nonpayable",
      "type": "constructor"
    },
    {
      "anonymous": false,
      "inputs": [
        {
          "indexed": false,
          "internalType": "uint256",
          "name": "",
          "type": "uint256"
        }
      ],
      "name": "CreateProposal",
      "type": "event"
    },
    {
      "anonymous": false,
      "inputs": [
        {
          "indexed": false,
          "internalType": "uint256",
          "name": "",
          "type": "uint256"
        },
        {
          "indexed": false,
          "internalType": "uint256[]",
          "name": "",
          "type": "uint256[]"
        }
      ],
      "name": "EndProposal",
      "type": "event"
    },
    {
      "anonymous": false,
      "inputs": [
        {
          "indexed": false,
          "internalType": "address",
          "name": "",
          "type": "address"
        },
        {
          "indexed": false,
          "internalType": "uint256",
          "name": "",
          "type": "uint256"
        },
        {
          "indexed": false,
          "internalType": "uint256",
          "name": "",
          "type": "uint256"
        }
      ],
      "name": "VoteProposal",
      "type": "event"
    },
    {
      "inputs": [
        {
          "internalType": "string",
          "name": "_title",
          "type": "string"
        },
        {
          "internalType": "string",
          "name": "_desc",
          "type": "string"
        },
        {
          "internalType": "uint256",
          "name": "_choiceAmount",
          "type": "uint256"
        },
        {
          "internalType": "string[]",
          "name": "_choices",
          "type": "string[]"
        },
        {
          "internalType": "uint256",
          "name": "duration",
          "type": "uint256"
        }
      ],
      "name": "createProposal",
      "outputs": [],
      "stateMutability": "nonpayable",
      "type": "function"
    },
    {
      "inputs": [
        {
          "internalType": "uint256",
          "name": "id",
          "type": "uint256"
        }
      ],
      "name": "endProposal",
      "outputs": [],
      "stateMutability": "nonpayable",
      "type": "function"
    },
    {
      "inputs": [
        {
          "internalType": "uint256",
          "name": "id",
          "type": "uint256"
        },
        {
          "internalType": "uint256",
          "name": "choice",
          "type": "uint256"
        }
      ],
      "name": "getChoiceProposal",
      "outputs": [
        {
          "internalType": "string",
          "name": "",
          "type": "string"
        }
      ],
      "stateMutability": "view",
      "type": "function"
    },
    {
      "inputs": [
        {
          "internalType": "uint256",
          "name": "id",
          "type": "uint256"
        },
        {
          "internalType": "uint256",
          "name": "choice",
          "type": "uint256"
        }
      ],
      "name": "getResultProposal",
      "outputs": [
        {
          "internalType": "uint256",
          "name": "",
          "type": "uint256"
        }
      ],
      "stateMutability": "view",
      "type": "function"
    },
    {
      "inputs": [
        {
          "internalType": "uint256",
          "name": "id",
          "type": "uint256"
        }
      ],
      "name": "getYourVote",
      "outputs": [
        {
          "internalType": "uint256",
          "name": "",
          "type": "uint256"
        }
      ],
      "stateMutability": "view",
      "type": "function"
    },
    {
      "inputs": [
        {
          "internalType": "address",
          "name": "",
          "type": "address"
        },
        {
          "internalType": "uint256",
          "name": "",
          "type": "uint256"
        }
      ],
      "name": "isVoted",
      "outputs": [
        {
          "internalType": "bool",
          "name": "",
          "type": "bool"
        }
      ],
      "stateMutability": "view",
      "type": "function"
    },
    {
      "inputs": [
        {
          "internalType": "uint256",
          "name": "",
          "type": "uint256"
        }
      ],
      "name": "proposals",
      "outputs": [
        {
          "internalType": "uint256",
          "name": "id",
          "type": "uint256"
        },
        {
          "internalType": "string",
          "name": "title",
          "type": "string"
        },
        {
          "internalType": "string",
          "name": "desc",
          "type": "string"
        },
        {
          "internalType": "uint256",
          "name": "choiceAmount",
          "type": "uint256"
        },
        {
          "internalType": "address",
          "name": "owner",
          "type": "address"
        },
        {
          "internalType": "bool",
          "name": "isEnd",
          "type": "bool"
        },
        {
          "internalType": "uint256",
          "name": "startTime",
          "type": "uint256"
        },
        {
          "internalType": "uint256",
          "name": "endTime",
          "type": "uint256"
        }
      ],
      "stateMutability": "view",
      "type": "function"
    },
    {
      "inputs": [],
      "name": "proposalsCount",
      "outputs": [
        {
          "internalType": "uint256",
          "name": "",
          "type": "uint256"
        }
      ],
      "stateMutability": "view",
      "type": "function"
    },
    {
      "inputs": [
        {
          "internalType": "uint256",
          "name": "id",
          "type": "uint256"
        },
        {
          "internalType": "uint256",
          "name": "vote",
          "type": "uint256"
        }
      ],
      "name": "voteProposal",
      "outputs": [],
      "stateMutability": "nonpayable",
      "type": "function"
    }
  ],
  "bytecode": "0x608060405234801561001057600080fd5b506000600181905550611cbd806100286000396000f3fe608060405234801561001057600080fd5b50600436106100935760003560e01c806363d264601161006657806363d264601461014d5780638ee36f0514610169578063a07bd40014610199578063dabfe995146101b5578063dd1c4b31146101e557610093565b8063013cf08b146100985780630a9f46ad146100cf5780630b4eadad146100ed57806333767a691461011d575b600080fd5b6100b260048036038101906100ad9190610e7e565b610201565b6040516100c6989796959493929190610fa6565b60405180910390f35b6100d7610396565b6040516100e49190611032565b60405180910390f35b61010760048036038101906101029190610e7e565b61039c565b6040516101149190611032565b60405180910390f35b6101376004803603810190610132919061104d565b610493565b604051610144919061108d565b60405180910390f35b6101676004803603810190610162919061104d565b6105ab565b005b610183600480360381019061017e91906110db565b610857565b604051610190919061111b565b60405180910390f35b6101b360048036038101906101ae9190610e7e565b610886565b005b6101cf60048036038101906101ca919061104d565b610a3f565b6040516101dc9190611032565b60405180910390f35b6101ff60048036038101906101fa9190611351565b610acf565b005b6000818154811061021157600080fd5b906000526020600020906009020160009150905080600001549080600101805461023a9061144f565b80601f01602080910402602001604051908101604052809291908181526020018280546102669061144f565b80156102b35780601f10610288576101008083540402835291602001916102b3565b820191906000526020600020905b81548152906001019060200180831161029657829003601f168201915b5050505050908060020180546102c89061144f565b80601f01602080910402602001604051908101604052809291908181526020018280546102f49061144f565b80156103415780601f1061031657610100808354040283529160200191610341565b820191906000526020600020905b81548152906001019060200180831161032457829003601f168201915b5050505050908060030154908060060160009054906101000a900473ffffffffffffffffffffffffffffffffffffffff16908060060160149054906101000a900460ff16908060070154908060080154905088565b60015481565b6000600260003373ffffffffffffffffffffffffffffffffffffffff1673ffffffffffffffffffffffffffffffffffffffff168152602001908152602001600020600083815260200190815260200160002060009054906101000a900460ff1661043b576040517f08c379a0000000000000000000000000000000000000000000000000000000008152600401610432906114f2565b60405180910390fd5b600360003373ffffffffffffffffffffffffffffffffffffffff1673ffffffffffffffffffffffffffffffffffffffff1681526020019081526020016000206000838152602001908152602001600020549050919050565b606060015483106104d9576040517f08c379a00000000000000000000000000000000000000000000000000000000081526004016104d09061155e565b60405180910390fd5b600083815481106104ed576104ec61157e565b5b906000526020600020906009020160040182815481106105105761050f61157e565b5b9060005260206000200180546105259061144f565b80601f01602080910402602001604051908101604052809291908181526020018280546105519061144f565b801561059e5780601f106105735761010080835404028352916020019161059e565b820191906000526020600020905b81548152906001019060200180831161058157829003601f168201915b5050505050905092915050565b6001548211156105f0576040517f08c379a00000000000000000000000000000000000000000000000000000000081526004016105e7906115f9565b60405180910390fd5b600260003373ffffffffffffffffffffffffffffffffffffffff1673ffffffffffffffffffffffffffffffffffffffff168152602001908152602001600020600083815260200190815260200160002060009054906101000a900460ff161561068e576040517f08c379a000000000000000000000000000000000000000000000000000000000815260040161068590611665565b60405180910390fd5b600082815481106106a2576106a161157e565b5b906000526020600020906009020160060160149054906101000a900460ff1615610701576040517f08c379a00000000000000000000000000000000000000000000000000000000081526004016106f8906116d1565b60405180910390fd5b80600360003373ffffffffffffffffffffffffffffffffffffffff1673ffffffffffffffffffffffffffffffffffffffff1681526020019081526020016000206000848152602001908152602001600020819055506001600260003373ffffffffffffffffffffffffffffffffffffffff1673ffffffffffffffffffffffffffffffffffffffff168152602001908152602001600020600084815260200190815260200160002060006101000a81548160ff0219169083151502179055506001600083815481106107d5576107d461157e565b5b906000526020600020906009020160050182815481106107f8576107f761157e565b5b9060005260206000200160008282546108119190611720565b925050819055507f39d80faa89578c03fb0ead49da694b8fc6de2bb90282a80333ec379ebf36a68e33838360405161084b93929190611754565b60405180910390a15050565b60026020528160005260406000206020528060005260406000206000915091509054906101000a900460ff1681565b6000818154811061089a5761089961157e565b5b9060005260206000209060090201600801544210156108ee576040517f08c379a00000000000000000000000000000000000000000000000000000000081526004016108e5906117d7565b60405180910390fd5b600081815481106109025761090161157e565b5b906000526020600020906009020160060160009054906101000a900473ffffffffffffffffffffffffffffffffffffffff1673ffffffffffffffffffffffffffffffffffffffff163373ffffffffffffffffffffffffffffffffffffffff16146109a1576040517f08c379a000000000000000000000000000000000000000000000000000000000815260040161099890611869565b60405180910390fd5b6001600082815481106109b7576109b661157e565b5b906000526020600020906009020160060160146101000a81548160ff0219169083151502179055507fa40a6cadf1488b053fb3174992d5e9ad18a150dc82f0ba306a6b73c121b097d58160008381548110610a1557610a1461157e565b5b9060005260206000209060090201600501604051610a34929190611997565b60405180910390a150565b60006001548310610a85576040517f08c379a0000000000000000000000000000000000000000000000000000000008152600401610a7c9061155e565b60405180910390fd5b60008381548110610a9957610a9861157e565b5b90600052602060002090600902016005018281548110610abc57610abb61157e565b5b9060005260206000200154905092915050565b600060405180610140016040528060015481526020018781526020018681526020018581526020018481526020018567ffffffffffffffff811115610b1757610b16611140565b5b604051908082528060200260200182016040528015610b455781602001602082028036833780820191505090505b5081526020013373ffffffffffffffffffffffffffffffffffffffff16815260200160001515815260200142815260200183610e10610b8491906119c7565b42610b8f9190611720565b8152509080600181540180825580915050600190039060005260206000209060090201600090919091909150600082015181600001556020820151816001019081610bda9190611bb5565b506040820151816002019081610bf09190611bb5565b50606082015181600301556080820151816004019080519060200190610c17929190610d0d565b5060a0820151816005019080519060200190610c34929190610d66565b5060c08201518160060160006101000a81548173ffffffffffffffffffffffffffffffffffffffff021916908373ffffffffffffffffffffffffffffffffffffffff16021790555060e08201518160060160146101000a81548160ff0219169083151502179055506101008201518160070155610120820151816008015550506001806000828254610cc69190611720565b925050819055507f7a3fba0e8ebe82bbd0323f6d582b015a8e06c05f76ff11c32787fcfbc295d041600154604051610cfe9190611032565b60405180910390a15050505050565b828054828255906000526020600020908101928215610d55579160200282015b82811115610d54578251829081610d449190611bb5565b5091602001919060010190610d2d565b5b509050610d629190610db3565b5090565b828054828255906000526020600020908101928215610da2579160200282015b82811115610da1578251825591602001919060010190610d86565b5b509050610daf9190610dd7565b5090565b5b80821115610dd35760008181610dca9190610df4565b50600101610db4565b5090565b5b80821115610df0576000816000905550600101610dd8565b5090565b508054610e009061144f565b6000825580601f10610e125750610e31565b601f016020900490600052602060002090810190610e309190610dd7565b5b50565b6000604051905090565b600080fd5b600080fd5b6000819050919050565b610e5b81610e48565b8114610e6657600080fd5b50565b600081359050610e7881610e52565b92915050565b600060208284031215610e9457610e93610e3e565b5b6000610ea284828501610e69565b91505092915050565b610eb481610e48565b82525050565b600081519050919050565b600082825260208201905092915050565b60005b83811015610ef4578082015181840152602081019050610ed9565b60008484015250505050565b6000601f19601f8301169050919050565b6000610f1c82610eba565b610f268185610ec5565b9350610f36818560208601610ed6565b610f3f81610f00565b840191505092915050565b600073ffffffffffffffffffffffffffffffffffffffff82169050919050565b6000610f7582610f4a565b9050919050565b610f8581610f6a565b82525050565b60008115159050919050565b610fa081610f8b565b82525050565b600061010082019050610fbc600083018b610eab565b8181036020830152610fce818a610f11565b90508181036040830152610fe28189610f11565b9050610ff16060830188610eab565b610ffe6080830187610f7c565b61100b60a0830186610f97565b61101860c0830185610eab565b61102560e0830184610eab565b9998505050505050505050565b60006020820190506110476000830184610eab565b92915050565b6000806040838503121561106457611063610e3e565b5b600061107285828601610e69565b925050602061108385828601610e69565b9150509250929050565b600060208201905081810360008301526110a78184610f11565b905092915050565b6110b881610f6a565b81146110c357600080fd5b50565b6000813590506110d5816110af565b92915050565b600080604083850312156110f2576110f1610e3e565b5b6000611100858286016110c6565b925050602061111185828601610e69565b9150509250929050565b60006020820190506111306000830184610f97565b92915050565b600080fd5b600080fd5b7f4e487b7100000000000000000000000000000000000000000000000000000000600052604160045260246000fd5b61117882610f00565b810181811067ffffffffffffffff8211171561119757611196611140565b5b80604052505050565b60006111aa610e34565b90506111b6828261116f565b919050565b600067ffffffffffffffff8211156111d6576111d5611140565b5b6111df82610f00565b9050602081019050919050565b82818337600083830152505050565b600061120e611209846111bb565b6111a0565b90508281526020810184848401111561122a5761122961113b565b5b6112358482856111ec565b509392505050565b600082601f83011261125257611251611136565b5b81356112628482602086016111fb565b91505092915050565b600067ffffffffffffffff82111561128657611285611140565b5b602082029050602081019050919050565b600080fd5b60006112af6112aa8461126b565b6111a0565b905080838252602082019050602084028301858111156112d2576112d1611297565b5b835b8181101561131957803567ffffffffffffffff8111156112f7576112f6611136565b5b808601611304898261123d565b855260208501945050506020810190506112d4565b5050509392505050565b600082601f83011261133857611337611136565b5b813561134884826020860161129c565b91505092915050565b600080600080600060a0868803121561136d5761136c610e3e565b5b600086013567ffffffffffffffff81111561138b5761138a610e43565b5b6113978882890161123d565b955050602086013567ffffffffffffffff8111156113b8576113b7610e43565b5b6113c48882890161123d565b94505060406113d588828901610e69565b935050606086013567ffffffffffffffff8111156113f6576113f5610e43565b5b61140288828901611323565b925050608061141388828901610e69565b9150509295509295909350565b7f4e487b7100000000000000000000000000000000000000000000000000000000600052602260045260246000fd5b6000600282049050600182168061146757607f821691505b60208210810361147a57611479611420565b5b50919050565b7f596f752068617665206e6f7420766f746520666f722070726f706f73616c207960008201527f6574000000000000000000000000000000000000000000000000000000000000602082015250565b60006114dc602283610ec5565b91506114e782611480565b604082019050919050565b6000602082019050818103600083015261150b816114cf565b9050919050565b7f50726f706f73616c206973206e6f742065786973742e00000000000000000000600082015250565b6000611548601683610ec5565b915061155382611512565b602082019050919050565b600060208201905081810360008301526115778161153b565b9050919050565b7f4e487b7100000000000000000000000000000000000000000000000000000000600052603260045260246000fd5b7f50726f706f73616c2773206e6f742065786973742e0000000000000000000000600082015250565b60006115e3601583610ec5565b91506115ee826115ad565b602082019050919050565b60006020820190508181036000830152611612816115d6565b9050919050565b7f596f75206861766520766f746520666f722070726f706f73616c207965742e00600082015250565b600061164f601f83610ec5565b915061165a82611619565b602082019050919050565b6000602082019050818103600083015261167e81611642565b9050919050565b7f566f74696e672074696d652068617320657870697265642e0000000000000000600082015250565b60006116bb601883610ec5565b91506116c682611685565b602082019050919050565b600060208201905081810360008301526116ea816116ae565b9050919050565b7f4e487b7100000000000000000000000000000000000000000000000000000000600052601160045260246000fd5b600061172b82610e48565b915061173683610e48565b925082820190508082111561174e5761174d6116f1565b5b92915050565b60006060820190506117696000830186610f7c565b6117766020830185610eab565b6117836040830184610eab565b949350505050565b7f54696d65206973206e6f74207570207965742e00000000000000000000000000600082015250565b60006117c1601383610ec5565b91506117cc8261178b565b602082019050919050565b600060208201905081810360008301526117f0816117b4565b9050919050565b7f4f6e6c79206f776e65722063616e2066696e73697368207468652070726f706f60008201527f73616c2e00000000000000000000000000000000000000000000000000000000602082015250565b6000611853602483610ec5565b915061185e826117f7565b604082019050919050565b6000602082019050818103600083015261188281611846565b9050919050565b600081549050919050565b600082825260208201905092915050565b60008190508160005260206000209050919050565b6118c381610e48565b82525050565b60006118d583836118ba565b60208301905092915050565b60008160001c9050919050565b6000819050919050565b600061190b611906836118e1565b6118ee565b9050919050565b600061191e82546118f8565b9050919050565b6000600182019050919050565b600061193d82611889565b6119478185611894565b9350611952836118a5565b8060005b8381101561198a5761196782611912565b61197188826118c9565b975061197c83611925565b925050600181019050611956565b5085935050505092915050565b60006040820190506119ac6000830185610eab565b81810360208301526119be8184611932565b90509392505050565b60006119d282610e48565b91506119dd83610e48565b92508282026119eb81610e48565b91508282048414831517611a0257611a016116f1565b5b5092915050565b60008190508160005260206000209050919050565b60006020601f8301049050919050565b600082821b905092915050565b600060088302611a6b7fffffffffffffffffffffffffffffffffffffffffffffffffffffffffffffffff82611a2e565b611a758683611a2e565b95508019841693508086168417925050509392505050565b6000819050919050565b6000611ab2611aad611aa884610e48565b611a8d565b610e48565b9050919050565b6000819050919050565b611acc83611a97565b611ae0611ad882611ab9565b848454611a3b565b825550505050565b600090565b611af5611ae8565b611b00818484611ac3565b505050565b5b81811015611b2457611b19600082611aed565b600181019050611b06565b5050565b601f821115611b6957611b3a81611a09565b611b4384611a1e565b81016020851015611b52578190505b611b66611b5e85611a1e565b830182611b05565b50505b505050565b600082821c905092915050565b6000611b8c60001984600802611b6e565b1980831691505092915050565b6000611ba58383611b7b565b9150826002028217905092915050565b611bbe82610eba565b67ffffffffffffffff811115611bd757611bd6611140565b5b611be1825461144f565b611bec828285611b28565b600060209050601f831160018114611c1f5760008415611c0d578287015190505b611c178582611b99565b865550611c7f565b601f198416611c2d86611a09565b60005b82811015611c5557848901518255600182019150602085019450602081019050611c30565b86831015611c725784890151611c6e601f891682611b7b565b8355505b6001600288020188555050505b50505050505056fea2646970667358221220142a36b72765b03444f3936c500c50e764cdfd05181ba50fc1227538b457263a64736f6c63430008120033",
  "linkReferences": {},
  "deployedLinkReferences": {}
}